:020000041000EA
:1000000000B5324B212058609868022188439860DF
:10001000D860186158612E4B002199600221596106
:100020000121F02299502B49196001219960352056
:1000300000F044F80222904214D00621196600F024
:1000400034F8196E01211966002018661A6600F04E
:100050002CF8196E196E196E052000F02FF8012189
:100060000842F9D1002199601B49196000215960AB
:100070001A491B48016001219960EB211966A021F2
:10008000196600F012F800219960164914480160C1
:100090000121996001BC002800D000471248134993
:1000A000086003C880F30888084703B5996A0420EC
:1000B0000142FBD001200142F8D103BD02B5186610
:1000C0001866FFF7F2FF186E186E02BD00000240BE
:1000D000000000180000070000035F00212200005C
:1000E000F4000018222000A00001001008ED00E03C
:1000F00000000000000000000000000074B24E7A12
:1001000000200420F7010010C3010010C5010010F9
:10011000C1010010C1010010C1010010C101001097
:10012000C1010010C1010010C1010010C701001081
:10013000C1010010C1010010C9010010CB01001065
:10014000CD010010CD010010CD010010CD01001037
:10015000CD010010CD010010CD010010CD01001027
:10016000CD010010CD010010CD010010CD01001017
:10017000CD010010CD010010CD010010CD01001007
:10018000CD010010CD010010CD010010CD010010F7
:10019000CD010010CD010010CD010010CD010010E7
:1001A000CD010010CD010010CD010010CD010010D7
:1001B000CD010010CD010010CD010010CD010010C7
:1001C00000BE00BE00BE00BE00BE00BE00F04BF888
:1001D000103800BEF2EB88712C5200104C52001007
:1001E0003402001090A31AE700202149086006C8D5
:1001F00081F3088810471F48006800282FD10DA4FC
:100200000ECC002902D000F012F8F9E71A491B4A77
:10021000002000E001C19142FCD1194988471949E9
:1002200088471949884700BEFDE701C901C29A42C3
:10023000FBD370474C520010C00000207004002017
:10024000FC5500100000042000000420FC550010A4
:1002500000100420001004200000000070470B482C
:1002600001F02AFF0047EFF30580C0B2704700009D
:1002700008ED00E0000000D070040020F411002020
:10028000091B001011030010F91B00105756000045
:1002900006005250ABB36053EC4F001006005250B2
:1002A000861C0302FC4F0010060052505422A29DEF
:1002B0000850001005005250DE65F468FC5500102F
:1002C000F8B5C04606480749091A8B10C90FC91866
:1002D00010B5491003D0044B002B00D0984710BD37
:1002E000700400207004002000000000054B10B5D1
:1002F000002B03D00449054800E000BFFFF7E2FFF0
:1003000010BDC0460000000084110020F84E00100F
:10031000F0B5DE46454657464E46E0B5A44CD027DC
:10032000A54402F035F98C220021520016A801F0F4
:10033000E7FF8C220123002152005CA8169301F0F4
:10034000DFFF9C4B38221C00190008A801F0DEFFDB
:1003500003AD23002A00383313CB13C203CB03C2EF
:100360000123140098463F0640CC300000F03AF9D3
:100370004346B3400022BB620121300000F020F967
:1003800016ABA342F0D1D0260127360610CD2000AF
:1003900000F028F93B00A3400022B36201212000B5
:1003A00000F00EF908ABAB42F0D1834BD0269B4650
:1003B000824B01250193A2AB9A46360608AB9946BB
:1003C0005CAC16AF4BE03B68012B00D195E0236895
:1003D000002B01D0013B23602A007368DB0C1A401C
:1003E0001D4257D17B68012B00D198E06368002B38
:1003F00001D0013B63602A0073689B0C1A401D42C8
:1004000056D1BB68012B00D18FE0A368002B01D02F
:10041000013BA3602A0073685B0C1A401D4255D152
:10042000FB68012B75D0E368002B01D0013BE36032
:100430002A0073681B0C1A401D4255D13B69012BE1
:1004400061D02369002B01D0013B23614346B36295
:1004500004239C461434E14414375445AED04B4633
:100460002A001B689A4072629046B2612A00736843
:100470001B0D1A401D42A6D03B68002BA7D1226855
:10048000642A5ED8023222602A007368DB0C1A40AC
:100490001D42A7D07B68002BA8D16268642A62D86D
:1004A000023262602A0073689B0C1A401D42A8D079
:1004B000BB68002BA9D1A268642A3CD80232A26092
:1004C0002A0073685B0C1A401D42A9D0FB68002B00
:1004D000A9D1E268642A3AD80232E2602A0073683D
:1004E0001B0C1A401D42A9D03B69002BA9D12269DF
:1004F000642A32D802322261A8E72368642B44D8E8
:100500000233236068E72369642B4AD802332361EE
:100510009CE7E368642B3ED80233E36088E76368B6
:10052000642B26D80233636065E7A368642B26D862
:100530000233A3606EE75846BD60A36001F09CFFE4
:1005400068E758463D60236001F096FF44E758464F
:10055000FD60E36001F090FF6AE758463D6123616A
:1005600001F08AFF72E758467D60636001F084FF06
:1005700041E701987A60626001F07EFF3BE70198F5
:10058000BA60A26001F078FF44E701983A60226007
:1005900001F072FF20E70198FA60E26001F06CFF61
:1005A00046E701983A61226101F066FF4EE7C046D6
:1005B00074FDFFFF0C4F0010F84E0010044F0010A8
:1005C000074B80009C4660440368C90092000A43C0
:1005D0005A400C231A4080235B0103431A60704782
:1005E00004C001400123D02283401206936293612C
:1005F000094A40219446830063441A68C0004A4077
:10060000803111408022520113431960034B9C46F4
:10061000052360444360704704C00140004001402E
:1006200070B5EFF3108C72B60D4D2B68002BFCD01B
:10063000BFF35F8F0724CB08C618C05C01230C40B2
:10064000A3401C000440034207D118433070BFF39D
:100650005F8F2C608CF3108870BD100001F0CEFA13
:100660002C0100D0F8B54746CE46884680B5EFF35A
:10067000108C72B6214D2C68002CFCD0BFF35F8F1C
:100680009A422CD8D4080727055D06190124174083
:10069000BC402C421FD007210127894609E0D4081D
:1006A000055D06194C4639001440A1400C00294252
:1006B00011D001329342F2D201204042BFF35F8F4A
:1006C00000220E4B1A608CF3108800280FDBC0BC90
:1006D000B946B046F8BD254310003570EEE7BFF3CC
:1006E0005F8F00232B608CF310880120404243462B
:1006F000002BECD0089801F081FAC0462C0100D004
:10070000024B18688007C00F7047C04600C0064003
:100710000021044B044ABFF35F8F02C39342FAD116
:100720007047C046000100D0800100D0044A107814
:10073000431CDBB2172B00D9102313707047C0463F
:100740007803002010B5064B064C82B001000093E0
:1007500018221F232000FFF785FF02B010BDC046FE
:10076000584F0010040D002001238340002904D0BD
:10077000034A1360034A13607047034A1360FBE7A0
:1007800080E200E000E100E080E100E0012383403E
:10079000014A13607047C04600E200E0084B103089
:1007A0009B688000C358002B07D0064A00209B1A84
:1007B0002F229A424041C0B270470020FCE7C04659
:1007C00000ED00E07C030020024B10309B688000AD
:1007D000C058704700ED00E070B50D00EFF31086D3
:1007E00072B60F4A1368002BFCD0BFF35F8F0D4B1E
:1007F00010309B6884001B590B4A934203D09D42E2
:1008000001D001F013FA074B9B681D51BFF35F8FB6
:10081000BFF35F8F0022024B1A6086F3108870BD11
:10082000240100D000ED00E0CD010010F0B55746E6
:100830004E46DE464546E0B585B0060000911700FD
:10084000EFF3108B72B66B4A1368002BFCD0BFF32A
:100850005F8F0025684B5D579A46002D00DA8CE0CB
:100860006B00664C01935B199B009846A146C144FE
:100870004B4652469B7910361370614BB6009B680D
:1008800099590B1B2F2B33D95E4B994200D0ADE009
:10089000019B42469C465C4B6544AD0063535B4BF9
:1008A0000232A218043B9B1A1B05594A5B0D6519BD
:1008B00013436B80574B0121AB80FF23AB71009B2F
:1008C000EF71AB604B460B4319004D4B9B68995140
:1008D000BFF35F8FBFF35F8F0022464B1A608BF32D
:1008E000108805B0F0BCBB46B246A946A046F0BD94
:1008F00001200A008243D3798C46BB4231D8454659
:10090000130045491B1B5B415943090D3E4B635383
:100910003E4B02356519043B5B1B1B053C4D5B0DD3
:100920002B43AA464D466B800425AC465546E04411
:10093000131F44441B1B1B055B0D1D434B46997144
:1009400000999D8099604946DF71344B01431360E3
:10095000BBE75800C01880002018C179B94212D9ED
:1009600002000623D356002BF3DA0293131D9A4696
:10097000BD231B026146039319E001F057F90025DE
:1009800053465D576CE7908802934005131D9A46C5
:10099000031561469C464046D44463460430201803
:1009A000181AE0230005400D1B021843039004238E
:1009B0005B429C46E14450464B461B1A1B055B0DAF
:1009C0009C46134B9571984663464046034393807B
:1009D000019B5A199200039BA418A380029B0F4A03
:1009E000A371009B2260E771A3606EE701F01EF91E
:1009F0004EE7C046240100D0EE1100207C03002009
:100A000000ED00E0CD01001000A1FFFFAC030020CD
:100A100000E0FFFF00BDFFFFAAAA000001488047D9
:100A2000F0B5DE4657464E464546E0B50C0083B06D
:100A3000EFF3108A72B6604A1368002BFCD0BFF344
:100A40005F8F1022914681444A465C4B96009B681A
:100A50009D595B4B98469D4205D0A54216D0594FF3
:100A6000EB1B2F2B14D9554B9B689D51BFF35F8F08
:100A7000BFF35F8F0022504B1A608AF3108803B0D7
:100A8000F0BCBB46B246A946A046F0BD1D00EAE751
:100A9000012383409B465A464B4B1B681A400092E9
:100AA0005A464A4B1A60BFF35F8FFFF7DCFB031E09
:100AB00001901DD12A0001339A439068844208D1E5
:100AC00071E04B005B189B00FB189868A04245D072
:100AD0001A00062151560029F3DA84426AD0009B9D
:100AE000002B34D05A463A4B1A60374B1A60BAE79B
:100AF000814530D12A0001239A4390688442E8D18D
:100B0000062151561300002940DB4A00501880008E
:100B10003C188046A0689860E079D871062020567D
:100B2000987100282FDBA488F81A64052415444422
:100B30000019E0240005400D24022043988053183A
:100B4000244A9B001078FB1898711170C7E75A4629
:100B50001E4B1A6087E701F069F8CBE7062159566A
:100B60000029D2DA0199002910D1FF3191711A4977
:100B7000918018490A789A71184ADB1B5B415A43E5
:100B8000120D0A70ABE7BD200002D7E7144A1549E1
:100B9000D21A083A5002400D014399801249520876
:100BA0000A43DA809BE70621515613000029ACDA8C
:100BB0004546DEE71300D5E7240100D000ED00E054
:100BC000CD0100107C03002000E100E080E100E0A6
:100BD00080E200E0EE11002000BDFFFFAAAA0000A5
:100BE000B603002000F0FFFF00F8FFFFF8B5012575
:100BF00004000543FFF737FBEFF3108C72B6214A70
:100C00001368002BFCD0BFF35F8F1F4E2100B76825
:100C10001E4A1F4B891A49414B431B0D59B2830091
:100C2000F858A8421CD00623D3568B421CD012235E
:100C3000D3568B4222D01E23D3568B4220D02A2358
:100C4000D35603208B4210D0124B1A781970A27120
:100C5000BFF35F8F00220B4B1A608CF31088F8BD36
:100C6000B2680D48D050EFE7002043001B189B00EE
:100C7000D218FF239371094B9380E5E70120F4E735
:100C80000220F2E7240100D000ED00E07C03002008
:100C9000AAAA0000EE110020CD01001000BDFFFF48
:100CA000054B064A1360064A136053609360D36095
:100CB00013615361936170478080808000E400E09D
:100CC00004E400E0D02300B51B061B6801000748C0
:100CD00083B01818064B002200930523FFF7C2FCCF
:100CE000002801DB1F23181A03B000BDE811002003
:100CF000744F0010024B9C466144890001607047AC
:100D00004000003483680B4810B584466144624457
:100D10001201090159189B185C684A680120944225
:100D200001D802D00020C0B210BD1A680B689A42E8
:100D3000F9D8F7E7FFFFFF0F0A4B1968EFF31080B0
:100D400072B60A68002AFCD0BFF35F8F1B68BFF33E
:100D50005F8F00221A6080F3108840BF00200021BE
:100D60007047C046B8110020F8B5574645464E4674
:100D7000DE46E0B598460CAB1C780DAB1B7807003F
:100D800091469A460568002C5ED1AC7B002C3BD086
:100D9000660029683619033E89194B78AB73002B1E
:100DA00000D1EB7300238B704B700B702D4BE2184E
:100DB000BB6812019B184A461A6042465A600A9A5A
:100DC0009A600B9ADA6000238B704B700B706B7B10
:100DD0009B46002B2BD022005946A8686B68984789
:100DE0002A68002816D05B4658465B005B4496197B
:100DF000033BB070D118D35C002B00D073705B46FE
:100E00000C706B735C4513D0F0BCBB46B246A94670
:100E1000A046F8BD5B465B005B44033BD3189C7067
:100E20009119925D002A00D05A705B460B706C736A
:100E30004A464346387D00F0ABFB051E0AD10E9BA7
:100E4000002BE1D01D70DFE7660029683619033EEC
:100E50008919ABE75346002BF1D12100386800F027
:100E6000EDFDECE7FFFFFF0FF0B5DE4657464E46BF
:100E700045460023E0B58DB00A936A4B8200D758EF
:100E800000239B460B9000F033FB02000B007868B8
:100E9000EFF3108972B64D4601680029FCD0A946CF
:100EA000BFF35F8F39684E7B8C46002E2ED0BC6816
:100EB0005D49A246711809018A445146086849688B
:100EC00004000D00A41A9D41002D5EDD02000B0000
:100ED0000B9800F05DFB002300229A460023089245
:100EE0000993002398467B68BFF35F8F5A461A60C8
:100EF00089F310884346002B12D10028C3D10DB0CE
:100F0000F0BCBB46B246A946A046F0BD0023002275
:100F10009A46002308920993002300209846E2E7AE
:100F20000A9B514618023043C047069007917A68E1
:100F3000EFF3108572B654461368002BFCD0A2461E
:100F4000BFF35F8F0699079A002A3BDB114302D05B
:100F50003B69002B52D13B68D97B002905D01A6828
:100F6000480041185218033A5670DE73FA68013E81
:100F7000935D013393555B463B617B68BFF35F8FA5
:100F80005A461A6085F310887DE7002D01D1002CA8
:100F90009CD10021604600F0B9FC53465C681B6898
:100FA0000893099453469B6898465346DB689A46D3
:100FB000FB689B19013B1B780A931B0203433B61AF
:100FC000002090E73B69002BC5D0089B099C5B1A69
:100FD0009441089809991A002300A14219D899420E
:100FE0001BD00021049101310391514601914146EA
:100FF000380002960091FFF7B7FEBCE700F078FAE0
:10100000069A079B12184B41994202D8E9D19042A7
:10101000E7D901225242D317E3E708999142E0D978
:10102000F7E7C0469C110020FFFFFF0FF8B55746B9
:101030004E464546DE46E0B5404D824689466A68E2
:10104000EFF3108872B61368002BFCD0BFF35F8FEC
:101050002E68B47B002C48D0670033683F19033FEB
:10106000DB195A78B273002A00D1F273344AA118FE
:10107000AA68090152185146116049465160314928
:1010800091600021D160997059701970737B9B46F3
:10109000002B45D022005946B068736898473268E3
:1010A000002830D05B4658465B005B44D719033BB1
:1010B000B870D118D35C002B00D07B705B460C70ED
:1010C00073735C452DD00026EB681B19013B197822
:1010D0006B68BFF35F8F00221A6088F310880020CE
:1010E000002E0AD10802204307E06B68BFF35F8F30
:1010F0001C6088F3108801204042F0BCBB46B24619
:10110000A946A046F8BD5B465B005B44033BD31891
:101110009C70D119D25D002A00D05A705B460B70CA
:10112000747352464B46287D00F032FA061ECAD030
:101130002100286800F082FCC6E7C046C4030020F6
:10114000FFFFFF0F390D001010B5124C6368002B24
:1011500004D00A211048FFF7CDFD10BD23000F4A2F
:101160001021206800F0D2FA032000F0B5F9032026
:1011700000F07CFA03200A4900F0C4F9FFF7D6FA20
:10118000084B9C46032360442375074B8000606036
:10119000DC60DEE7C4030020B8110020050D00105C
:1011A000690E0010400000349C1100200048704778
:1011B000C4030020F0B557464E464546DE46E0B52E
:1011C00085B0019310AB1B780600039300239A4669
:1011D000984600927268EFF3108B72B61368002B7A
:1011E000FCD0BFF35F8F3568AC7B002C6BD0670001
:1011F0002B683F19033FDB195A78AA73002A00D1E4
:10120000EA73524AA118B26809015218009801996C
:10121000106051600E9991600F99D16042469A70AA
:101220005A701A706B7B9946002B00D175E0220032
:101230004946A8686B6898472A68002860D04B46E2
:1012400048465B004B44D719033BB870D118D35CB8
:10125000002B00D07B704B460C706B734C455DD0FF
:10126000F3681B19013B18787368BFF35F8F424620
:101270001A608BF310885346002B08D100022043DC
:1012800005B0F0BCBB46B246A946A046F0BD039BE4
:10129000002B59D00E9B00200F99984703000400A3
:1012A0000D000B4350D0002916DA00980199020076
:1012B0000B00121BAB4199421CD83CD00092019309
:1012C000039B9A4686E77368BFF35F8F1C608BF3BE
:1012D000108801204042D3E700F00AF902000B0019
:1012E000A4185D4100940195A94203D8E8D1009962
:1012F0008A42E5D901235B42DC1700930194DFE7C2
:101300004B465B004B44033BD3189C70D119D25D14
:10131000002A00D05A704B460B706C73307D009AD7
:10132000019B00F035F98246002899D021003068F1
:1013300000F084FB94E700999142BFD901235B42FE
:10134000DC1700930194BBE7002099E7FFFFFF0F34
:10135000F8B5CE46474680B505000C00FFF766FE9F
:10136000031E0CDC2C4A0020536A9C4203D8926A6C
:101370000130AA423ED3C0BCB946B046F8BD20BF3A
:10138000264E7168EFF3108772B60A68002AFCD007
:10139000BFF35F8FDAB294463068427B624533D048
:1013A000FF2201681A408946510088464946904408
:1013B000414403398978002921D0F1681B0A8A1831
:1013C000013A1278DBB29A4221D07368BFF35F8F83
:1013D00000221A6087F310880F4B00205A6A94424B
:1013E000C9D89B6A0130AB42C5D2A01A431E9841AE
:1013F000C0B2C0E7E31A5A1E9341D8B2BBE73269C4
:101400009342E2D13161E0E7FF221A40D5E761461D
:1014100000F014FBD9E7C04600400540C40300209B
:10142000F0B5D6464F464646C0B5EFF305823F239A
:10143000134018001038EFF3108C72B620490A6878
:10144000002AFCD0BFF35F8F0122170087401D4C9C
:101450001600A24667631C4C2578A0462C00C440A9
:101460002640224215D05246566A184A8400A25895
:10147000964218D34246164BBD43E3581570BFF34E
:101480005F8F00220A608CF31088002B06D09847EB
:1014900004E0BFF35F8F0E608CF31088E0BCBA46A7
:1014A000B146A846F0BD0B4A9B00904643441A68DB
:1014B0001A60BFF35F8F00230B608CF31088EDE799
:1014C000280100D000400540F1110020C411002087
:1014D000F40B0020D03F054010B5034B010018006D
:1014E000024AFFF79DF810BDED110020904F00104B
:1014F000034B596A0A00986A596A8A42FAD17047BE
:101500000040054070B504000D00EFF3108672B680
:101510001A4A1368002BFCD0BFF35F8F002D1BD03D
:101520002000FFF751F9164981420AD02000FFF749
:1015300053F901212000FFF717F90123A340114AB5
:101540001360114BA400E550BFF35F8F00220B4BDB
:101550001A6086F3108870BD0121A1400A4BA200D9
:10156000D5500A4B20001A788A4305491A70FFF7B4
:1015700057FA00212000FFF7F7F8E5E7280100D02F
:101580002114001038600540F40B0020F1110020F8
:10159000F0B54F46D6464646C0B507002E4C616AA8
:1015A0000D00A66A616AA942FAD18B4208D805D01B
:1015B0000120E0BCBA46B146A846F0BDB242F7D918
:1015C000EFF3108A72B6254801680029FCD0BFF3FA
:1015D0005F8F0125BD4022491F4C88460978894606
:1015E0002943C9B28C46414660460870391D8900BE
:1015F00065630A511B49B8004350216A0020294203
:1016000019D0616A0800A66A616A8142FAD18B42E8
:1016100019D801D1B24216D8CC450BD00E4B1F229F
:101620001D625D6301233A4093400F4A13604346B5
:101630004A461A700120BFF35F8F0022074B1A60E1
:101640008AF31088B5E70020BFF35F8F0022034BB9
:101650001A608AF31088ACE700400540280100D0EA
:10166000F1110020C411002080E200E0EFF3108CA3
:1016700072B60A490B68002BFCD0BFF35F8F0123C1
:101680008340074A0748136202789A430270BFF307
:101690005F8F00230B608CF310887047280100D007
:1016A00000400540F111002070B505000E00140047
:1016B000002923D0002A12D080686B6898472968D7
:1016C00000280ED063001B197200033B9219CB183F
:1016D000033A9E7088188A5C002A11D10470300089
:1016E00070BD73009B196200033B1219CB18033ABB
:1016F0009C7088188A5C002A05D106702000EFE7EC
:101700005A700470EBE75A700670F7E730B58360E3
:101710000023CCB243730133047342608373C473F8
:101720000D000068012C06D9421C0133DBB2137096
:1017300003329C42F9D1FF2129404B005B18C018AD
:1017400000230338437030BD70B505000C1E07D070
:10175000630001681B19033BCB185A78002A01D19A
:10176000200070BD500080180338091800204E7802
:101770004870210058702800FFF796FF31000400E0
:101780002800FFF7E1FF0600002C26D00028E7D054
:1017900021003200A8686B689847296800280ED09D
:1017A00073009B196200033B1219CB18033A9C701B
:1017B00088188A5C002A00D05A700670D0E763004F
:1017C0001B197200033B9219CB18033A9E708818BC
:1017D0008A5C002A00D05A7004703400C0E7C0460A
:1017E000F8B557464E464546DE464C00E0B564180F
:1017F00017000268033C0500105D13190E009C469B
:10180000002852D0430098461B18033BD318597840
:101810008A46002919D1002F0CD0EC7B002C50D027
:1018200063001B19D318033B5E70EE73434619180F
:101830000339531800229A70002362465370F0BC9B
:10184000BB46B246A946A046F8BD490051440339FB
:101850005218517888460021517089465970524675
:1018600001002800FFF720FF43468246002B07D0E7
:101870005B0029684344033BCB185A78002A2CD1DB
:10188000514642462800FFF70FFF0100002F1AD0F3
:10189000A4462A68EF7B9444002F04D07B00DB1918
:1018A000D318033B5E70EE7310E0002FC4D0E97BC9
:1018B000002910D04B005B18D318033B5E70EE7309
:1018C000BAE7EE73B6E7A4462A6894440029B3D079
:1018D0004B009846AAE7EE73AEE750008018033835
:1018E0000918487883464846487058704146280091
:1018F000FFF7DAFE594680462800FFF725FF4146EC
:1019000002002800FFF7D0FE8046B9E7F8B5574639
:101910004E464546DE46E0B5467B02687500AD1989
:10192000033D0F00515D531904009C46002953D01C
:101930004B0098465B18033BD31858788246002822
:101940001BD1002F0CD0E57B002D51D06B005B1913
:10195000D318033B5E70E6734346581803381318D8
:1019600000229A7000236246300053706173F0BC0D
:10197000BB46B246A946A046F8BD400050440338D5
:101980001218507880460020507081465870524698
:101990002000FFF789FE43468246002B07D05B00FC
:1019A00021684344033BCB185A78002A2CD1514676
:1019B00042462000FFF778FE0100002F1AD0AC4607
:1019C0002268E77B9444002F04D07B00DB19D318F6
:1019D000033B5E70E67310E0002FC3D0C07B00288D
:1019E00010D043001B18D318033B5E70E673B9E7B1
:1019F000E673B5E7AC46226894440028B2D04300B1
:101A00009846A9E7E673ADE7500080180338091837
:101A10004878834648464870587041462000FFF792
:101A200043FE594680462000FFF78EFE41460200E5
:101A30002000FFF739FE8046B9E7C04670B50500C3
:101A400000292CD0437B8B422ED04C0000686418B8
:101A5000033C0419A278002A21D053009B18033BB1
:101A6000C25CC6188A4202D11BE0002A08D053008B
:101A70009B18033BC3185A788A42F6D162785A7091
:101A8000002301222800A3706370FFF7A9FE697B81
:101A900002002800FFF708FE6873012000E0002024
:101AA00070BD63783370EBE701221900FFF798FEF1
:101AB000F2E7C04610B50400FEF738FE0100200032
:101AC000FFF718F9FF232371BFF35F8F10BDC046E6
:101AD00010B50400FEF72AFE01002000FFF70AF906
:101AE000FF23A380BFF35F8F10BDC04610B5040075
:101AF0000120FEF727FE034BC3189B002360BFF3B2
:101B00005F8F10BD400000342C4B2D4A70B51A6019
:101B10002C4A2D4B2D491A6014008B689C43FBD135
:101B20002B4D2C4EB54208D2013E761BB60808CD8F
:101B3000984723000134B342F9D100F07DF8264ADA
:101B4000214B1A60214A9368DB43DB01DD09002B3E
:101B5000F9D14022214B224C224E9A675A671A67CC
:101B6000DA66B44208D223682000002B20D0083463
:101B7000FFF7AEFFB442F6D31B4C1C4EC022B16837
:101B8000200000F0C3FBB460FEF7C2FDFFF788F849
:101B9000FFF7DAFA164C174EB44208D2013E361B54
:101BA000B60808CC98472B0001359E42F9D170BD8C
:101BB0000834FFF77FFFB442D5D3DDE700E00040F3
:101BC000BFCDFBFEFE7F3C0000F0004000C00040A7
:101BD0005804002068040020FFFFFF0100F00140CE
:101BE00050040020580400200000002000ED00E018
:101BF000680400207004002000BEFDE70FB400B5AB
:101C0000084883B000F038FC049B002B07D005A9DE
:101C10001800019100F030FA034800F02DFC00BEDE
:101C2000FDE7C046B44F0010C44F001010B5014886
:101C3000FFF7E4FFC84F001010B50C2082B000F091
:101C4000A9F9FEF75DFD002810D0864B864886492D
:101C5000864A186059609860D96018615961986126
:101C6000D961186259625A6202B010BD804CA067F7
:101C700000F0E6F901227F4B1A60636C012BFCD166
:101C800003227D4B1A607A4A936B012BFCD10133FE
:101C900001217A4A7A480093043300F027F905239A
:101CA000784A00930121784800F020F9774B5A6870
:101CB000FF2A02D8802252005A6080226E4B694C63
:101CC00012011A602169002905D0606900F026FA26
:101CD00001300138FDD1E0226C4B6D4819680A4093
:101CE000026002221968514001320A400421026058
:101CF0009A681142FCD08021664A09011160802255
:101D000052005A60644B2361644B5968FF2900D824
:101D10005A6003220121574B1A60604A93681942A6
:101D2000FCD0E023106803405D4803601268032381
:101D30004A4002211340594A036093681942FCD07B
:101D40008021584B090119608021574B490051608F
:101D50006361564B5A68FF2A00D859608022544B61
:101D600012011A60E169002905D0606900F0D6F916
:101D700001300138FDD1E0234C4A11680B404D4938
:101D80000B6080214C4B090119608021364B4900C2
:101D90005160E361494B5A68FF2A00D8596080229C
:101DA000474B12011A60216A002905D0606900F0D2
:101DB000B5F901300138FDD1E023404A11680B40EC
:101DC00040490B608021404B0901196080235B0072
:101DD00053608022244BD20223623C4B59689142CB
:101DE00000D25A6080223A4B12011A60616A0029BF
:101DF00005D0606900F092F901300138FDD1E0238F
:101E0000324A11680B4033490B608021324B090183
:101E100019608023DB025360144B63622F4B5A68B6
:101E2000FF2A02D8802252005A6080222C4B1201D5
:101E30001A60A169002905D0606900F06FF90130CE
:101E40000138FDD1E023254A11680B4025490B607C
:101E50008021254B0901196080235B005360124BE0
:101E6000A36101E770040020006CDC021BB70000D6
:101E7000008000403CB0004030B00040002F685966
:101E800000800240008C864700C002403080004045
:101E90003090004030A00040001BB7003C80004064
:101EA0003C9000403CA000404059730754800040E3
:101EB00054B000405490004054A000406080004066
:101EC00060B000406090004060A000406C80004026
:101ED0006CB000406C9000406CA000404880004016
:101EE00048B000404890004048A00040F8B50400C9
:101EF0000C2017001D000E0000F010F943011B1A02
:101F00009901C91AC90009188901380000F006F9B9
:101F1000069B29041B0319432368002B20DB194B64
:101F2000194DE3185A4253418022520194461B0333
:101F3000164A63441360164A13601F00AA68974349
:101F4000FBD1C023221D9B01134321222660A060E8
:101F50001A602268002AFCDA0822E1601A60F8BDE3
:101F60003F2322681340B342D9D1A3681B051B0D40
:101F70008342D4D1EE22E368D20213408B42CED109
:101F8000EDE7C0460040FDBF00C0004000E000405B
:101F900000F000408023024A9B000343D362704755
:101FA0000080054010B580241C4BE4051C6000280F
:101FB0001AD001231A4C18431A4BDC611A4C4440C6
:101FC0001C62596298628021144BC9051960174838
:101FD00017490860E021C9041960002A07D180224E
:101FE000144B12061A6010BD0E4BD861EBE753017B
:101FF0009B1A9B009A18802312015B049A4209D213
:1020000013000D490B60074B5A608022094BD20523
:102010001A60E8E7094B1A00F3E7C04600B0054034
:10202000D3C007B0008005402D3FF84FFCFF0100F2
:102030000820014000A005407C110020FFFFFF00A8
:10204000AA23064A1B0113602F230549D360054BC1
:1020500019605368002BFCDA7047C046004002400C
:1020600000B0FA000060024010B5002800D110BD99
:1020700000F0B0F9FBE7C04610B5094A0300146848
:1020800084B0002C08D0012200910648524203A9D6
:10209000A047012004B010BD00F0EEF90020F9E7E0
:1020A000781100206920001001480421014B1847D5
:1020B000F0030020D9200010142310B50100188867
:1020C00004331B88984710BD162310B501001888EB
:1020D00002331B88984710BDF8B54746CE4680B5F9
:1020E0000F1E19D01423994604330400002501263D
:1020F00098464B461888434621681B88984701C478
:10210000431E9841013540420640AF42F1D13000B4
:10211000C0BCB946B046F8BD0126F8E7114A936F36
:102120009B0813D210665166002905D0FFE7FFE730
:10213000FFE7516F106F704704B5002801D00020F1
:10214000C04302F0B9FE002104BDC046F0B5146ED4
:10215000556E576F166FFFF7E5FF146655665767A4
:102160001667F0BD000000D0132370B51D78012D57
:1021700015D010DD1D48FFF7A7FF1D4C0100802280
:10218000200000F0C3F8022D2DD01A48FFF794FF6D
:10219000194B186070BD194B154CA364F5E7174B2C
:1021A000134C23606360A360E36023616361A361F8
:1021B000E36123626362A362E36223636363A363F5
:1021C000E36323646364A364E36423656365A365D5
:1021D000E36523666366A366E36623676367A367B5
:1021E000E367A364D1E7054BA364CEE75344000043
:1021F000A00500204C330000B41100200122001083
:1022000007B5604601880A0A0230DF2AFAD1C9B24E
:10221000820804D3028840880004104300E000686C
:10222000014A5050039007BDA0050020514343438D
:10223000C9188C46110C83B24B4310B4040C614393
:1022400092B280B2504362431C041B0C001910BCB4
:1022500059411304120CC0185141614470470000E9
:10226000132310B512481C78FFF72EFF0100012C34
:102270000AD003DD80220F4800F048F80E48FFF72F
:102280001BFF0E4B186010BD0A4C5422200000F0BA
:102290003DF80B4B6365A365E36523666366A36640
:1022A000E36623676367A367E3672362E361E5E7A8
:1022B00053460000A00600204C330000B41100205B
:1022C000C522001007B5604601880A0A0230DF2ADD
:1022D000FAD1C9B2820804D30288408800041043AE
:1022E00000E00068014A5050039007BDA00600209E
:1022F00001480421014B184700040020D920001098
:10230000014B1B681847000000040020014B5B686C
:102310001847000000040020F0B546464F46D64658
:10232000C0B5437C80460E001700002B4BD0002A1E
:1023300032DD274B01259A464B1E0024002099468A
:1023400007E0335D0A2B2CD02B0001340135BB4252
:1023500013DA002CF5D133780A2BF5D143461B7CD8
:10236000002BF1D14346504602211B6898472800B4
:102370002B0001340135BB42EBDB874204DD4346D1
:10238000391A1B6830189847F619013E33780D3B0F
:102390005A42534142461374E0BCBA46B146A8467D
:1023A000F0BD4B461B5D0D2BCED0A042DADA434682
:1023B000211A1B68301898474346504602211B6873
:1023C00098472800D4E70368110030009847E3E7F6
:1023D00038500010F0B5CE46474680B583B06B4606
:1023E000DE1CD02330701B061C68204B804601A9E0
:1023F0001800994602F068FD071E20D01C4B1C688F
:10240000002C29D01B4D02E0E468002C0FD023687B
:10241000002BF9D02B68002B01D0A342F4D120006F
:1024200001223100FFF778FFE468002CEFD1002F84
:1024300012D1404603B0C0BCB946B046F0BD019BC6
:1024400064B29C420CD0484602F04EFD084B1C681A
:10245000002C01D00127D5E7484602F025FDE8E72A
:10246000034B1C68002CCDD1E3E7C046500400208C
:10247000700D0020740D0020F0B5DE4645464E4636
:102480005746E0B583B0060002F0D6FCD0231B0609
:102490001C68304B050001A918009B4602F014FD92
:1024A000804600283DD02C4B1C689A46002C47D013
:1024B0000A232A4F994602E0E468002C17D02368CB
:1024C000002BF9D03B68002B01D0A342F4D12000AF
:1024D0002A003100FFF720FF6B464A4620001A71A0
:1024E00001A90122FFF718FFE468002CE7D1434659
:1024F000002B25D153461C68002C06D06368002BA6
:102500000BD09847E468002CF8D1280003B0F0BC49
:10251000BB46B246A946A046F0BDE468002CEDD10A
:10252000F3E7019B64B29C420ED0584602F0DCFCFB
:10253000094B1C689A46002C02D001239846B7E745
:10254000584602F0B1FCD5E7034B1C689A46002CB4
:10255000AED1DAE750040020700D0020740D002089
:102560000A4A1368002B05D10CE01A00DB680C3214
:10257000002B07D09842F8D1002902D1C36813601C
:10258000C16070470029FCD01060FAE7700D002090
:1025900010B500F03DF910BD7047C0460022014B58
:1025A0001A707047EF1100204B790020FF2B0BD1E0
:1025B0008B79002B08D1CB79012B05D1082A03D9BF
:1025C000024B8A7809301A707047C046EF1100201C
:1025D0000120704770B5002913D11449537910793F
:1025E00009781B0203430020994200D070BD537844
:1025F000012B08D0022BF9D1642200210020FFF723
:10260000D1FC0120F2E79478D2780500120214433D
:10261000D20502D5620A93401D000548FFF74CFD24
:102620007F210300214028009847C046EF11002079
:102630005542000001230370004870473C500010D1
:102640004B780A781B0213438A7810B512041A4398
:10265000CB781B0613439622D200934200D010BDC4
:102660000348FFF729FD0021030008009847C046F2
:102670005542000070B5184C82B006000D002000D5
:1026800001A902F021FC002808D1D0231B06019AE1
:102690001B689A421CD0200002F026FC002001F0AA
:1026A000A9FD002807D103256D42200002F0FCFBA4
:1026B000280002B070BD002001F0B4FD0028F2D067
:1026C0002A003100002001F0B9FD051EEBD0ECE737
:1026D00003256D42ECE7C046BC110020F0B5DE4694
:1026E0004E465746C0B5344B82B081460D001800A7
:1026F00001A99B4602F0E8FB002808D1D0231B0665
:10270000019A1B689A4250D0584602F0EDFB002017
:1027100001F070FD002840D00024002D42DD274B41
:102720009A4612E04B460020191901F0FBFD060005
:1027300000F0EEFD002001F0B9FDFEF7D9FE534692
:1027400018605960A419AC422CDA002001F004FE94
:102750002E1B0200B04200DD3200002AE2D100F060
:10276000D7FD002001F0A2FD002001F043FD00286C
:1027700018D0002001F0F0FD0028E4D1FEF7B8FEEB
:10278000002753460E4E1A685B6892197B419942A6
:1027900008D8D8D19042D6D904E000200021074BB8
:1027A00018605960584602F07FFB02B0E0BCBB469F
:1027B000B246A946F0BDC046BC11002098050020D5
:1027C00020A1070010B5044B1878FDF7DFFFFA20B1
:1027D0000021800010BDC046F011002010B5024B52
:1027E0001878FDF7D3FF10BDF011002010B5074C8D
:1027F0000021200002F068FB002800D110BD00F08D
:1028000087FD200002F050FBF8E7C046BC11002015
:10281000F0B5244B85B01B7801F080FF2248FFF70C
:1028200049F90120FEF74EFAFF23204C2049207081
:102830001840FDF7D1FF20780121FDF795FF052015
:10284000FDF7ACFF041E0CD0002205201949FDF74E
:10285000EDFF01211848FFF783FE0124200005B099
:10286000F0BDFEF7A3FC0500FEF742FEFA220600CB
:102870000F000023920092197B4199420ED80BD091
:1028800001210291002101910C4928000091FEF7DD
:1028900091FC0028E2D0DCE79042F1D901225242BB
:1028A000D317EDE748520010BC110020F0110020B2
:1028B000ED270010DD27001010040020C5270010B0
:1028C000004870470C51001000487047B850001085
:1028D00010B5040017480378002B20D0002C06D137
:1028E000154B16484380063BFF3B038010BD052C6B
:1028F00019D8134BA400E0581249002304E0013317
:102900000A800231132B10D0C25C002AF7D1C022FA
:102910000133DBB25B00920008481343E5E7112165
:1029200002F096F9DAE70020E0E7CA2303489B00AB
:10293000DBE7C046D411002009040000480D002048
:10294000A05000104A0D0020F0B598235746454688
:10295000DE464E46674AE0B5D75880253C006D02FA
:1029600085B02C40883B2F420ED001222321624BA0
:1029700000205A546149DA7001F000FA80222C00DC
:102980005F4B92021A655F4BFA0617D480235B01F6
:102990001F424BD18023DB011F4200D080E0802307
:1029A0001B021F4200D089E0BC4200D09DE005B070
:1029B000F0BCBB46B246A946A046F0BD4D4A926D5A
:1029C0009046002A2DD04E4A00249346012291467B
:1029D000494A0126924642465146B8469A46170051
:1029E000039104E001347600E4B2202C17D0374282
:1029F000F8D05B469E654B466508A3436D00ED1815
:102A0000039B6D019C466544280000F00DFB0028E7
:102A10005FD10134B743E4B27600002FE5D14746D9
:102A200053461C0080235B011F42B3D01C4300238C
:102A3000304A00211360314A33489360D3601361F8
:102A400053619361D361136253629362D3621363E0
:102A500053639363D363136453649364D3641365C0
:102A600053659365D365136653669366D3661367A0
:102A700053679367D367F0229200FFF741FC234B23
:102A8000234A00211A600020012201F04BF9802224
:102A90001B4B12031A658023DB011F4200D17EE726
:102AA0000122042100201C4301F0AAF81022144B3B
:102AB0001A6580231B021F4200D175E70122052100
:102AC00000201C4301F09CF880220D4B12011A6576
:102AD0006AE74B46AA8AA97800200093002301F0F8
:102AE00075F9280000F0DCF993E7210009487940E6
:102AF000FFF784F800001150780D002000001050FE
:102B00000030115010000100B80D0020801100208D
:102B1000800110502051001010B501210520FDF753
:102B200023FE10BD10B500220021024800F0E0F99C
:102B300010BDC046980D00208022024B5202DA647C
:102B40007047C04600201150F0B5C64600B50600DB
:102B500000F080F90C232E4D0520AB672D49FDF7C1
:102B60003BFE402398462C4C402200212000FFF7DA
:102B7000C7FB43460127A38321210023274A67700F
:102B8000A260136063545F3161844146A1870239BA
:102B90006354234A23496360E260A1620B60E262EE
:102BA000214A636220009360D36013615361936193
:102BB000D361136253629362D3621363536393636B
:102BC000D363136453649364D3641365536593654B
:102BD000D365136653669366D3661367536793672B
:102BE000D367F022002192004030FFF789FB0F4BA2
:102BF0000F4A30001A6080239B052F64EB649023FA
:102C00000C4AEA50FFF798FF80BCB846F0BDC046BA
:102C10000000115049290010780D00208400105048
:102C20000001105080001050000010508011002052
:102C30008001105010D001000B785B0602D14B7858
:102C4000052B00D070478A78014B1A60FAE7C0461E
:102C500000001150F0B5CE464746072380B54879AD
:102C60008E780A790340C8787F21800731401B02A3
:102C7000F40913434F00820F944691462A4D3A19A6
:102C80005201AA18967001266640567060460026CA
:102C90009383D6709077CA00012C29D023488446AC
:102CA000880162448446AC44604682601660002914
:102CB00029D01F4AC9009046414441603F223F331A
:102CC00093434A46022A00D15B001A493F190A6819
:102CD0007F01D3180B60184BED195340EA604A4648
:102CE0009006184380236A681B060343136010E0B4
:102CF00012488446880162448446AC44604682623D
:102D0000166000290AD1002364012C1963600C4B62
:102D1000E3600120C0BCB946B046F0BD064AC90018
:102D2000904641444162C9E7780D0020840010506C
:102D3000040010508011002000001050800010503E
:102D4000000110500022154B10B59A60DA601A612C
:102D50005A619A61DA611A625A629A62DA621A6395
:102D60005A639A63DA631A645A649A64DA641A6575
:102D70005A659A65DA651A665A669A66DA661A6755
:102D80005A679A67DA67F032920000210448FFF729
:102D9000B7FA044B044A1A6010BDC0460000105038
:102DA000B80D0020801100208001105010B57F2048
:102DB0000C0020404000E409110000191A00034BE8
:102DC0004001C01800F094F8012010BD780D0020DB
:102DD0007F23180010B508400B420BD0C909802290
:102DE0004000074B401840010021C018120100F0BC
:102DF0005DF810BD0223034AC9095B1A9366EEE72A
:102E0000780D0020002011507F22130010B50B40D8
:102E10000A4200D110BDC9095B005B1804485B0180
:102E2000C018002300220349C37000F03FF8F1E707
:102E3000780D0020FFF7FFFF7F21C209034B9200AE
:102E4000014010B5D2580248FEF7D8FE24040020F5
:102E50003451001080220D4B520410B51A600C4BF7
:102E60000C491A6010008B689843FBD10A4C9C22D5
:102E700000212000FFF744FA802200215201074878
:102E8000FFF73EFA0923636710BDC04600E000402B
:102E900000F0004000C00040000011500000105041
:102EA00000230374438283828361704710B5836873
:102EB000002901D01C682140002A11D08024E400A0
:102EC000114322420CD01A6822420BD1074A0A4011
:102ED0001A60FFE7FFE7FFE7FFE7FFE7FFE7836829
:102EE000196010BD8078FFF7A7FFC046FFFBFFFF0A
:102EF000F0B5C646002300B58382013303744368EE
:102F000004001F68838B81611E1C934200D9161C2C
:102F10008020B6B2921B93B2E278C0003043150015
:102F20008446681E854160466D030543012042408A
:102F3000E27062786382002A50D0002B2CD080226D
:102F400052011543344A126C920743D5A28B111CCF
:102F50009A4200D9191C8AB28021C90011439B1AD8
:102F60009046E2789BB21600701E864176030E43AF
:102F700001214A40E27062786382002A3AD0002B35
:102F800002D18023DB011E43A023244A36043A40A9
:102F9000DB053543134309E0A023DB011D431E4B32
:102FA0001B6C80231E4A9B053A40134362681360E2
:102FB000A26813685B052BD41A4B2B401360FFE704
:102FC000FFE7FFE7FFE7FFE7FFE7A3681D6080BCBF
:102FD000B846F0BDA278D209B8D1E2E73200E06885
:102FE000FFF794F9A3699B19A36180231B021D437A
:102FF000638AA2E7E0684246A1694030FFF786F99C
:10300000A3694344A36180231B021E43638AB6E77E
:10301000A078FFF711FFC04600001150FFFFFFDF4F
:10302000FFFFFFAFFFFBFFFFF0B5C64600B5067C14
:103030000400002E00D1CEE083681A681D68437832
:10304000AD05AD0D002B00D070E0838AEB189BB26C
:103050008382A18B8D4207D20023638263681B6841
:10306000300080BCB846F0BD62681268520010D5CE
:103070008D420ED1A26815686278AD01AD0D002AAF
:1030800000D08CE0EB18A3828D4202D20023638231
:10309000E6E7638A002BE3D062681E1C17688B4248
:1030A00000D90E1CE17880220D00681E8541B6B261
:1030B000D20032436D03154301229B1B51406278BD
:1030C0009BB26382E170002A5AD0002B3BD0802251
:1030D00052011543454A126C920702D4A278D209D4
:1030E00036D0A28B111C9A4257D88AB28021C900CF
:1030F00011439B1A9046E2789BB21600701E8641DF
:1031000076030E4301214A40E27062786382002A0E
:1031100053D0002B02D18023DB011E43A023344A6D
:1031200036043A40DB053543134316E02A00806934
:10313000E168FFF7EBF8A38AA269EB189BB252197A
:10314000A382A26185E7A023DB011D43274B1B6CF3
:103150008023284A9B053A40134362681360A268A3
:1031600013685B053ED4244B2B401360FFE7FFE759
:10317000FFE7FFE7FFE7FFE7A36800261D606FE7B3
:103180003200E068A169FFF7C1F8A3699B19A36148
:1031900080231B021D43638A97E7191CA5E7E1689A
:1031A0002A004031A069FFF7B1F8A38AA18BEB1880
:1031B000A382A3695B19A36166E7E0684246A1693F
:1031C0004030FFF7A3F8A3694344A36180231B02A7
:1031D0001E43638A9DE77F238178084A0848194087
:1031E000FEF70CFDA078FFF727FEC0460000115047
:1031F000FFFFFFDFFFFFFFAFFFFBFFFF2404002007
:1032000054510010024B5878431E9841C0B2704789
:10321000D80A0020024B18784007C00F7047C046FC
:10322000D80A0020014B18787047C046EB110020E7
:10323000F0B5C6462D4F05003B7800B5002B03D0F6
:10324000012080BCB846F0BD532200212848FFF77A
:1032500057F8284C2000FEF72DFC274B1C60274C0C
:1032600020001C3CFEF742FC200001F0A5FC244B92
:10327000244E1C60244B9846002B2AD03000FFF7C8
:10328000D9F94246214B002418603378002A25D012
:103290001E4A90469C420FD301F06AF801343378FD
:1032A000E4B2A342F6D22800FFF74EFC2800FFF755
:1032B00033FC01233B70C3E743461A6863001B19C4
:1032C000DB009B58984701343378E4B29C42E1D943
:1032D000E9E7424600243378002AD9D101F048F8C2
:1032E0003378002BDFD043461B68FFDEEB11002054
:1032F000D80A0020900A00202C0B0020480400204F
:10330000300B0020EA11002035260010A007002015
:10331000F0B5DE4657464E464546E0B591B001F061
:1033200003FA002800D144E1C24BC34E0193C34BC2
:103330000DAC0293C24B00969B46009B1D68EA6948
:10334000EFF3108172B61368002BFCD0BFF35F8FD0
:1033500029622800210001F0A1FAEA692B6ABFF373
:103360005F8F0021116083F31088002800D120E1D5
:103370006378082BE1D8019A9B00D3589F46636875
:10338000002BDAD0A0689847D7E77F222179AB4B92
:103390000A405500C8095B191B1818000127303076
:1033A000C578BD43C570C5780337BD43C570002AD5
:1033B00000D105E1A34ADB7C002A06D0A24A12789C
:1033C000934200D287E19B1ADBB2002B00D0F0E0E1
:1033D0009E4DA36862792078A847AEE70122974FF7
:1033E00001213B78042013433B703323FA5C8A436A
:1033F000FA54FA5C8243FA540133FA5C8A43FA5471
:10340000FA5C8243FA54237800209A4600F064FE66
:10341000602223791A40602A0DD0402A00D1EBE0C7
:10342000DB06DB0E012B00D160E1022B00D11BE19A
:10343000002B00D1EFE020780021FFF7C9FC8021AC
:103440002078FFF7C5FC78E7029B1B78DB0700D4E8
:1034500073E77F4B002B00D16FE700E000BF6CE704
:10346000764A1378DB0700D467E77A4B002B00D14C
:1034700063E710780007C00F00E000BF5DE7724D02
:10348000704A00272B78002A00D1B0E06C4A160061
:103490009F4205D30137FFB29F4200D94DE7F9D2D1
:1034A0007A003168D219D2008A185269002AF1D004
:1034B0002078904701372B78FFB2BB42E8D23CE737
:1034C0002378614D98465F4A0027914646462B78FF
:1034D000002A00D183E0BB425CD8300000F086FFB8
:1034E00001372B78FFB2BB42F5D2029D5322002157
:1034F0002800FEF705FF1022FF215748FEF700FFC6
:1035000028002022FF211330FEF7FAFE00F0DAFD3A
:10351000524B002B00D110E700E000BF0DE72378ED
:10352000494D484A9846914600272B78002A4DD0AD
:10353000434A46469146BB421DD8300000F056FF34
:1035400001372B78FFB2BB42F5D23C4D532200210C
:103550002800FEF7D5FE1022FF21E81CFEF7D0FE62
:1035600028002022FF211330FEF7CAFE00F0AAFD3A
:103570002379AB70E1E64B461A687B00DB19DB0070
:10358000D3185B683000984701372B78FFB29F4211
:10359000D1D9DAE75B461A687B00DB19DB00D31868
:1035A0005B683000984701372B78FFB2BB4292D25C
:1035B0009BE711B0F0BCBB46B246A946A046F0BDA1
:1035C000A3686279207800F09BFDB6E6404600F0E3
:1035D0000DFF2B78002BB8D04B465B68FFDE4046D2
:1035E00000F004FF2B78002B00D17EE7F4E7002BDE
:1035F00000D1A2E65369FFDE1948002800D11AE77E
:1036000000F06AFD002150460EAA00E000BF00282D
:1036100000D092E60FE7202A00D19CE0002A00D0DB
:1036200009E76379092B00D905E70E4A9B00D358B7
:103630009F46C04688510010300B0020D80A002059
:10364000A007002035260010EA110020E1450010F7
:103650000000000000000000DB0A00200000000065
:1036600000000000AC5100107023217A0B4200D002
:10367000E1E60F330B405B00CD09F8184019C67C1A
:10368000B948002806D0B9480078864200D283E0C5
:10369000301AC6B2002E7BD1002A00D010E1B44A05
:1036A0009146022662799046B243012A00D10BE18D
:1036B0004246002A00D0BEE6FB185B193033DB78A7
:1036C0000CAA9B07DB0F02321380504602230EA97F
:1036D00000F0A2FC31E6A74A58001268C318DB00CC
:1036E000D318002B00D164E71D6972E6237A0F2BF3
:1036F00000D9A0E69C4AFB18DB78002A05D09B4A3B
:103700001278934263D39B1ADBB2002B00D092E66F
:103710009948974D00F0E0FC00215046EB680EAA56
:103720009847002800D008E66022150023791D4044
:103730001A4200D07FE663790A3B012B00D97AE672
:1037400000F0CAFC63790A2B00D1EAE050460EA9CA
:1037500000F04CFCF1E5237A0F2B00D96BE6824A8E
:10376000FB18DB78002A06D0804A1278934200D2F8
:10377000CCE09B1ADBB2002B00D05CE67E487C4D8F
:1037800000F0AAFC00215046EB680EAA98473EE7DD
:103790009146002A85D04EE6764803907000844614
:1037A000039866440068F6008146B144002A00D1BF
:1037B00077E74B46002B00D13DE6D86800F08CFC43
:1037C0004B4600215046DB680EAA98471FE7694A1E
:1037D00059001568CB18DB00ED18002D00D12AE642
:1037E000E86897E7E388012B00D024E608223B78BD
:1037F000504693430EA93B7000F0F8FB9DE5022074
:1038000039780CAB9A1C8B068908DB0F01400B43FF
:103810005AE7A37998467B78984507D07B78002BA8
:1038200000D01AE14346002B00D0ABE0434650469F
:103830000EA97B7000F0DAFB7FE57B780CAA0232E0
:103840001370504601230EA900F0E6FB75E5E388EE
:103850001A0AD8B20F2A00D9EDE548499300CB588F
:103860009F460EA800F03EFC5046A179FFF75AF99A
:1038700002223B7813433B705FE5E388012B00D0C5
:10388000D9E508223B78504613430EA93B7000F05F
:10389000ADFB52E5022A00D19BE1394B002B00D150
:1038A000C9E500E000BF0200002A00D1C3E5D378DB
:1038B00091781B020B4350460EA900F0ADFBA6E623
:1038C0002B4B2D48994679E7E288002A08D14246D9
:1038D000FB185D193035EB78012A37D09B0729D5C5
:1038E0004B46002B00D128E5D86800F0F5FB4B468D
:1038F0000021DB680EAA50469847002000F0ECFB40
:103900003423FB5CDB0700D517E51FE7194A590094
:103910001568CB18DB00ED18002D00D18BE5E868A9
:103920002EE70CAB9A1C504601230EA9157000F02F
:1039300073FB02E55046FFF74BFA0222EB78134384
:103940000122EB70EB781343EB70C9E79B07C7D5F7
:103950005046FFF759FA4246EB78B343EB70EB78E9
:103960009343EB70BCE7C04635260010EA110020F7
:1039700014520010A0070020FD440010D451001084
:1039800000000000581EC0B2FEF79EFF002800D1C4
:1039900051E543780893022B00D04CE50121C3790F
:1039A0009A115B110A400B4052011B0113433A78F4
:1039B0002F318A4313433B7009239946C378827899
:1039C0001B021343C3180593844B81440493844B17
:1039D0000A93844B0693844B079343460B933B0017
:1039E0004F469946059BBB4200D8E0E001227B7818
:1039F00003920B2B04D1FB7803933B78FF187B7861
:103A0000042B00D017E5059B0025DB1B9BB21E0095
:103A1000049B1A780A9B002B00D18BE0734BB846AD
:103A200009930EE03200414650469847082801D9D4
:103A3000864258D2049B01351A78EDB2AA4200D2D0
:103A4000F9E4069B079F9542ECD2099A6B00176830
:103A50005B19DB00FF18BB68E4E75046FFF772F91B
:103A60000022BB785D4D5E4E039391462B78002E6D
:103A700030D05E4E32002E004D469146AB421AD8F1
:103A8000504600F0B3FC01353378EDB2AB42F5D2CD
:103A9000532200213800FEF733FC1022FF21F81CCE
:103AA000FEF72EFC38002022FF211330FEF728FC01
:103AB000039BBB70B6E64B461A686B005B19DB00D4
:103AC000D3185B685046984701353378EDB29D4274
:103AD000D4D9DDE7504600F089FC2B78002BD7D0F5
:103AE00033005B68FFDE3B00060047469846039BB9
:103AF000012B66D0039B002B0FD00023B97805E083
:103B0000D5700133039ADBB2934206D2CA18D2B2FF
:103B10004A44D078FF28F3D08DE42B0039003200DE
:103B2000334800F045FE049BBF191B78AB4200D31D
:103B300058E780E432003900504600F06DFCB04692
:103B40000600082802D9434683422DD2049B1B78E5
:103B5000002B00D16FE400239B68FFDE254B002B78
:103B600000D168E400E000BF0200A0E6224B002B79
:103B700000D160E400E000BF021E00D15BE45046CB
:103B800013780EA900F048FA41E52189FEF7A0FE5E
:103B9000021EF4D14FE4FEF793FE122302000EA999
:103BA000504600F039FA32E50F4B98469FE70B9BE1
:103BB0004F469846114B002B00D137E600E000BF7E
:103BC00034E64246074B92689A4296D1089B03938B
:103BD00093E7FEF779FE020066E6C046EA11002090
:103BE000352600101944001014520010A0070020C0
:103BF000EB0A0020000000000000000000000000B0
:103C000030B587B06B4605000C00981C0A220021D5
:103C1000FEF776FB6B461D705C70042C4FD009D804
:103C2000022C34D0032C19D13C4A13785B0758D4AA
:103C300007B030BD052C11D1384A1378DB07F7D512
:103C4000042113788B431370354B1C68E269EFF342
:103C5000108172B61368002B09D1FBE7304B1C684A
:103C6000E269EFF3108172B61368002BFCD0BFF34A
:103C70005F8F21626946200000F0E2FEE269236A5C
:103C8000BFF35F8F0021116083F31088D0E701211B
:103C9000224B1A788A431A701A780331A2431A7099
:103CA00000225A701A788A431A701D4B1C68E26908
:103CB000EFF3108172B61368002BD8D1FBE7174AD7
:103CC0001378DB07B4D5042113780B431370144B1E
:103CD0001C68E269EFF3108172B61368002BC6D13D
:103CE000FBE704210E20137868448B4313700021F6
:103CF0000A22FEF705FB6B466A461D7305235373C4
:103D0000074B1C68E269EFF3108172B61368002B51
:103D1000FCD0BFF35F8F216203A9ACE7D80A002073
:103D2000300B002070B584B06B4606000C000A22F0
:103D30000021981DFEF7E4FA012301AD6B700E4BD4
:103D40002C711C682E70E269EFF3108372B6116853
:103D50000029FCD0BFF35F8F23622900200000F010
:103D60006FFEE269236ABFF35F8F0021116083F366
:103D7000108804B070BDC046300B0020002330B561
:103D800085B001AD6B8028700633082202A86B70E5
:103D9000FEF7BCFA0C4B1C68E269EFF3108372B6B5
:103DA00011680029FCD0BFF35F8F23622900200037
:103DB00000F046FEE269236ABFF35F8F00211160C5
:103DC00083F3108805B030BD300B0020F0B5C64637
:103DD00000B584B01D006B4680460F001600002120
:103DE0000622981DFEF78CFA434601AC2370072388
:103DF00063700F4B65711D682771A660EA69EFF368
:103E0000108372B611680029FCD0BFF35F8F2B625C
:103E10002100280000F014FEEA692B6ABFF35F8FCF
:103E20000021116083F3108804B080BCB846F0BD57
:103E3000300B0020F8B54E46DE4657464546E0B505
:103E40001F000A9B83460C00161E994637D070232C
:103E500098461C4B00259A4617E053462000997857
:103E600000F066FC00281CD021005846FEF7F2FE48
:103E7000002816D0A378DA09012A19D04A4613700F
:103E800023780135E418B54219DA6378052B08D197
:103E9000E3789B079B0FBB4203D14246A3781A42AB
:103EA000DBD00020F0BCBB46B246A946A046F8BD18
:103EB0000B9A013513702378E418B542E5DB012035
:103EC000F0E7C046D80A0020702270B58B78050054
:103ED0000C001A4201D0002070BD064B20009978DA
:103EE00000F026FC0028F6D021002800FEF7B2FEE4
:103EF000F2E7C046D80A00207F2270B5154B0A4071
:103F000052009C18C90964183034E378DB07DD0FD0
:103F1000002B18D1E3785B0701D5280070BD012183
:103F20000D4E4942306800F0D7FFE378DB07DD0F24
:103F3000002B0AD1E3785B0708D40422E37801253B
:103F40001343E37002E00025E7E70025306800F046
:103F5000ABFFE2E7D80A00202C0B002070B50C0064
:103F600001210F4D4942286800F0B6FF7F230D4A1A
:103F700023405B00E409D3181B193033DA7800249E
:103F8000D20708D4DA785207D40F002A03DA0421C2
:103F9000DA788A43DA70286800F086FF200070BD66
:103FA0002C0B0020D80A002070B57F240E4D0C4049
:103FB00064002C19CE09A4193034E578ED0701D539
:103FC000002070BD0126E5783543E570FEF7EEFE72
:103FD0000028F6D10122E3789343E370E3780332BB
:103FE0009343E370ECE7C046D80A002070B5094C53
:103FF0000600082220000D00FEF788F9002380212A
:10400000E360A3602B783000994300220023FFF780
:10401000CBFF70BD7C0A0020F8B5CE4647469046DF
:10402000264E80B58146082230000D001F00FEF7A5
:104030006DF94346B3600023F381EC79AB79240238
:104040001C43231CBC4200D93B1C9FB2B381002CF3
:104050000ED0002F18D04346002B2CD03B1C402FF5
:104060001BD89FB233787F2B1CD80021144A0FE055
:1040700080212B780022994348460023FFF794FFC4
:10408000C0BCB946B046F8BD7F23002231789943C1
:104090003B004846FFF788FFF2E740239FB23378A2
:1040A0007F2BE2D9064C3A0041462000FEF72EF95C
:1040B00080212200ECE70020E2E7C0467C0A0020D5
:1040C000980A002010B5142200210248FEF718F9C2
:1040D00010BDC0467C0A0020014B18617047C046E5
:1040E0007C0A002010B5054C010008222000FEF7D4
:1040F0000DF90023A360E36010BDC0467C0A0020D8
:1041000070B5394C1D0023780600DA09C9098A42C6
:1041100013D00020002D00D070BD344B002B03D0F5
:1041200021003000FEF788FD2369002B03D0220018
:104130000221300098470120EEE77F2B06D8A068C7
:10414000002834D02A002A49FEF7E0F8E289A16865
:104150005219E38892B24919E281A160934214D0C6
:104160003F2D12D9A389981A051C80B240282AD85D
:104170002078ADB27F2828D800219A4232D01C4A3C
:104180002B003000FFF710FFC6E72369002B05D096
:10419000220001213000984700280AD0802123788E
:1041A0000022994330000023FFF7FEFEB4E7002011
:1041B000B2E700213000FEF70BFE30008021FEF751
:1041C00007FE0120A8E74025D2E79A4207D0084C15
:1041D0002A002000FEF79AF880212200D0E78021F3
:1041E0000022CDE70022CBE77C0A0020392C00100A
:1041F000980A002010B50400FFF704F8002801D148
:10420000002010BDFFF706F80028F9D1B622920071
:104210006243034B01309B181B791840F1E7C046FD
:10422000A4070020B6239B00434310B5024818188A
:1042300000F00EFB10BDC046B4070020F0B5B62557
:10424000AD0045432C00C646174F1034E41900B5A5
:10425000200092B200F074FB0600200000F010FB7A
:104260003F2803D8300080BCB846F0BD7B19002041
:10427000D9789846FFF740FE0028F3D0200000F0E0
:10428000FFFA3F280AD996239B00EA184346D21921
:10429000D97800204023FFF787FEE3E7434600205C
:1042A000D978FFF75BFEDDE7A4070020F8B504002E
:1042B000FEF7A8FF002801D10020F8BDFEF7AAFFF5
:1042C0000028F9D1B6239B005C432500144E2C3501
:1042D000AD19280000F0BCFA0028EDD037190020F5
:1042E000B978FFF709FE0028E6D0A6239B009C467C
:1042F0006444A41921002800402200F021FBB97871
:10430000051E08D0030022000020FFF74DFE002804
:10431000D2D02800D1E70020FFF720FECCE7C0462E
:10432000A407002070B5B624A4004443094B05003F
:10433000E418200092B200F0BFFB0600200000F05D
:1043400087FA3F2801D8300070BD2800FFF7AEFF84
:10435000F9E7C046D0070020B6239B00434310B5C1
:104360000248181800F08CFA10BDC046D007002093
:10437000B622F0B51B4C83B0002120009200FDF75F
:10438000BFFFFF236371184B80260025E3800127C0
:104390000823210020007600237332002781483152
:1043A0000095073B103000F019FA21002000493138
:1043B0003200FF31012300972C3000F00FFA9223D6
:1043C0009B00E6183000FDF775FB94239B00A66266
:1043D000E61830006562FDF76DFB2664656403B086
:1043E000F0BDC046A407002000C2FFFF10B5094C75
:1043F000052200212000FDF783FF20002C3410301F
:1044000000F0DAFB200000F0D7FB0121200000F0D3
:10441000F9FB10BDA4070020F0B54B79060083B06E
:10442000022B02D18B79022B03D00025280003B088
:10443000F0BD2F4FBB78002BF7D18B7809253B704F
:104440000C780C196378242B0BD1082A02D81FE0B2
:10445000AA421DD32378E4185D196378ADB2242BEA
:10446000F6D0052B30D0042B12D163790A2B0FD153
:10447000204B27780193013300930222022330005E
:10448000E119FFF7D7FC0028CFD00E35ED19ADB2FA
:10449000194C200000F0F4F93F28C7D92600103E3F
:1044A0000020F178FFF728FD0028BFD0200000F0A1
:1044B000E7F93F2816D992239B00E218F1784023B0
:1044C0000020FFF771FDB1E721003000FFF7FCFC91
:1044D0000028AAD0A3787B7023785D19E41863784C
:1044E000ADB2C0E7F1780020FFF738FD9EE7C04687
:1044F000A4070020A6070020B4070020F8B5602319
:1045000014001278050013400020202B12D12F4AEE
:104510006379277916781B023B439E420AD1637860
:10452000222B27D007D8202B17D0212B02D10029EE
:104530003DD00120F8BD232BFCD100293FD002291A
:10454000F7D1234B002BF4D0E178A37809020020A7
:10455000194300E000BF0120ECE7002927D0022921
:10456000E7D11C4B002BE4D00020911DFEF768F82A
:104570000120DFE7002922D00229DAD101252E000F
:10458000A378E478013924021C43147126402C32AC
:104590001000714000F036FB0F4B002BC9D06208B1
:1045A000002031002A4000E000BF0120C2E70723BD
:1045B00021002800094AFFF72FFD0120BAE721005A
:1045C0002800FFF713FD0120B4E7C046A407002030
:1045D000000000004126001000000000AA07002093
:1045E000F8B545465746DE464E46E0B5464D1F00F7
:1045F000EA7880460C00AB788A4246D000208B4295
:104600001AD0F0BCBB46B246A946A046F8BD3F4B07
:10461000002B04D0484600F02BF900286CD0484607
:1046200000F02EF93F2807D94E46103E0020F178C1
:10463000FFF762FC002851D1AB78A34201D00120E2
:10464000DFE7334B002B02D0002000E000BF00204A
:10465000FFF72CFE0028F2D12E4C200000F0F8F8D5
:104660000028ECD1002FEAD0BF06E8D12C3C404610
:10467000A178FFF741FC0028E1D00023002240464A
:10468000A178FFF791FC0120BBE796239B00EE1871
:1046900010239B46AB4431005846BAB200F00CFAE6
:1046A0001D4BD946002BB2D06B79FF2BAFD0002F1A
:1046B000ADD0F219924603E00136B245A7D06B792E
:1046C00032789A42F8D1484600F0D2F80028F3D167
:1046D0004B46103B597900E000BFEDE7484600F03B
:1046E000CFF83F280BD9922292004023F1784A4418
:1046F0000020FFF759FC9FE700E000BF8FE7F1784B
:104700000020FFF72BFC97E7A40700200000000023
:1047100000000000D00700200000000010B50020BD
:10472000FEF786FD10BDC04610B5FEF77BFD10BD3F
:10473000072210B544790379224012021A43C37844
:104740009B079B0F022B05D0032B15D00020012BBC
:1047500008D010BD02291ED00020402393424041C2
:10476000C0B2F6E702394B4259410E4B9C466144B8
:1047700091424041C0B2ECE702394B1E99410A4BCD
:10478000494219408023DB009C460020614491424D
:104790004041C0B2DDE7054BD01843425841C0B29A
:1047A000D7E7C046FF03000040FCFFFF00FEFFFF0D
:1047B000F0B5002A11D000247F274D78052D06D1B1
:1047C0003D008E7835406D00F6094519AB550D78E2
:1047D0002C19A4B24919A242EFD8F0BDF0B5C646D3
:1047E00000B5150006AA1E001378802204000F00F1
:1047F00098461202954229D84069002803D0012129
:10480000494200F069FBA069002803D00121494218
:1048100000F062FB4346A5806D00ADB223726B1EB3
:10482000A381002360696D42E3812760E680658192
:104830002382002801D000F037FBA069002801D0B6
:1048400000F032FB012080BCB846F0BD0020FAE742
:10485000C189028A8B1A9BB2914202D242899B1A69
:104860009BB28288101C9A4200D9181C80B27047F3
:10487000C389008A181A43425841C0B27047C046E3
:1048800010B5C489018A8388621A92B28C4202D21E
:104890004189521A92B2981A80B210BD70B50400C4
:1048A00080690E00002803D00121494200F014FB6A
:1048B000E089228A81B2851A93B2ADB2904202D2C7
:1048C0006289AD1AADB2A288AA422BD2914222D2FD
:1048D00060891018091A89B221829A4203D89B1A5A
:1048E0009BB29A42FBD9E288216853433000C91831
:1048F000FDF70CFD228A0125531C9BB29A4215D963
:1049000062899B189BB2A0692382002801D000F025
:10491000CBFA280070BD891AA08989B2884209D3D0
:1049200015002182002DDCD1238A9BB2A2899A42F4
:10493000E9D2E5E760891500091A89B22182F1E719
:10494000F0B54F464646D6460500806988469146F2
:10495000C0B5002803D00121494200F0BDFAEA8920
:104960002B8A91B2D61A9CB2B6B29A4202D26B8905
:10497000F61AB6B2AF88B7423DD2B94232D23E0043
:104980006B89FB18CB1A9BB22B822C8AA4B24B46A4
:10499000B1454BD89EB2A74203D8E41BA4B2A742AC
:1049A000FBD9EA882968914662433B1B9BB2891870
:1049B0004A469E4235D953439BB21A0040469A4616
:1049C000FDF7A4FC4B464046F71BE4195C432968FD
:1049D0005044A2B2FDF79AFC2A8A93199BB29A42DC
:1049E00010D80CE0C91BAB8989B28B4220D33E00A2
:1049F00029822C8AA4B2002EC9D12B8A9BB2AA8903
:104A00009A4202D26A899B189BB2A8692B8200281D
:104A100001D000F049FA3000E0BCBA46B146A846E1
:104A2000F0BD40467243FDF771FCD5E7331CB1E79A
:104A30006B893E00C91A89B229822C8AA4B2DAE7AE
:104A400070B5040040690E00002803D001214942DE
:104A500000F042FAE289218A95B2531A9BB2914240
:104A600002D962899B1A9BB2A2889A4220D02B005D
:104A7000954203D39B1A9BB29A42FBD9E2882068E5
:104A800053433100C018FDF741FC6B1C9BB29D42A3
:104A90000AD962899B189BB26069E381002801D022
:104AA00000F002FA012070BDA2899A42F4D2F0E728
:104AB000207A0028DBD1F6E7F8B54E465746DE46A9
:104AC00045468946E0B50600171E5BD040690028C0
:104AD00003D00121494200F0FFF9F389318A9BB2EA
:104AE0009846337AB58889B2002B3BD143465A1A8F
:104AF00092B2884502D27189521A92B2AA1A111C36
:104B000092B2BA4252D8F3888FB27A1B9A4693B2C5
:104B10009B464446A84503D3641BA4B2AC42FBD2D7
:104B20005346634330682D1BADB2C018AF422BD83B
:104B3000524649467A43FDF7E9FB4346FB189BB2D0
:104B400098451BD8B2899A4218D37069F38100281E
:104B500001D000F0A9F93800F0BCBB46B246A94626
:104B6000A046F8BDF3889A46AF4221D37F1B5F432E
:104B70000023B94488462F009B46CAE772899B18D8
:104B80009BB2E2E70027E6E753465D43ADB22A0059
:104B90004946FDF7BBFB2200534629005A445A43BD
:104BA000306892B24944FDF7B1FBC6E7391CAAE769
:104BB0007A1B93B29B46ACE710B50400406900280D
:104BC00003D00121494200F087F9A069002803D0F1
:104BD0000121494200F080F90023E3812382A38868
:104BE00060695B009BB25A1E5B42A2816381002810
:104BF00001D000F059F9A069002801D000F054F963
:104C0000012010BD70B5040040690D00002803D0DC
:104C10000121494200F060F9A069002803D0012178
:104C2000494200F059F960692572002801D000F06E
:104C30003BF9A069002801D000F036F9012070BDD1
:104C400010B5024800F0D8F810BDC046AC110020E5
:104C500030B54B1E012900D1A7E0664A11780D112D
:104C60002C0030349F2900D9A2E00470012B00D120
:104C7000BEE00F21147821400C003034092900D9FE
:104C800098E04470022B00D1B2E05478251129003D
:104C900030319F2C00D990E08170032B00D1A7E028
:104CA0000F2121400C003034092900D987E0C4705D
:104CB000042B00D19CE094782511290030319F2CE1
:104CC00000D97FE00171052B00D191E00F21214037
:104CD0000C003034092900D976E04471062B00D14C
:104CE00086E0D4782511290030319F2C00D96EE060
:104CF0008171072B00D17BE00F2121400C00303463
:104D0000092966D8C471082B00D171E014792511E6
:104D1000290030319F2C5FD80172092B68D00F21F8
:104D200021400C003034092958D844720A2B5FD036
:104D300054792511290030319F2C52D881720B2BC8
:104D400056D00F2121400C00303409294BD8C472B1
:104D50000C2B4DD094792511290030319F2C00D98E
:104D6000073101730D2B43D00F2121400C0030344B
:104D7000092901D937310C0044730E2B38D0D17971
:104D80000C11220030329F2900D9073282730F2B79
:104D90002ED00F220A4011003731092A01D83032B3
:104DA0001100C173102B23D010300023037030BDCD
:104DB00007345AE737310C0063E707316CE73731C6
:104DC0000C0074E707317DE737310C0085E70731C8
:104DD0008EE737310C0095E707319DE737310C003E
:104DE000A3E70731AAE737310C00C4720C2BB1D10D
:104DF000C018DAE7AC11002030B5002589B00400F6
:104E00000922002101A80095FDF77AFA0922002164
:104E100005A80495FDF774FA4B236A46684613709B
:104E200004A90D2200F038F8152108222000694459
:104E3000FDF76CFA09B030BD10B583070AD0030046
:104E4000032102E001330B4205D01A78002AF9D180
:104E5000181A10BD030019680C4A0D4C8A188A43B1
:104E600022420FD15968094A04338A188A432242E0
:104E700008D15968054A04338A188A432242F1D07E
:104E800000E001331A78002AFBD1E1E7FFFEFEFEC5
:104E900080808080F8B5C04601B40248844601BCD9
:104EA000604700BF8502002001B40248844601BC6F
:104EB000604700BFE901002001B40248844601BCFC
:104EC000604700BF4503002001B40248844601BC8E
:104ED000604700BF0901002001B40248844601BCBC
:104EE000604700BF4901002001B40248844601BC6C
:084EF000604700BFC100002073
:104EF80072656C65617365640000000070726573AB
:104F0800736564000D0000000E0000000F00000033
:104F18000C0000000B0000000A000000090000005F
:104F28000800000002000000030000000400000068
:104F38000500000006000000070000001400000043
:104F48001300000012000000110000001000000013
:104F58004E6F207370696E6C6F636B73206172653E
:104F680020617661696C61626C6500004E6F207526
:104F780073657220495251732061726520617661B0
:104F8800696C61626C650000486172647761726582
:104F980020616C61726D20256420616C72656164AA
:104FA8007920636C61696D65640000000A2A2A2A09
:104FB8002050414E4943202A2A2A0A000A000000AC
:104FC80048617264206173736572740052656C6520
:104FD80061736500626F6F74325F77323571303894
:104FE80030000000312E342E300000007069636FED
:104FF800000000006F72696F6E7368616E64730001
:105008004F6374203136203230323200060052505D
:10501800D3F07542D44F001006005250E182887FC9
:10502800DC4F001006005250BBFF3CB6F44F001096
:105038000D0A0000992500109D250010A9250010D3
:10504800D5250010D125001000000000555342203E
:10505800737464696E202F207374646F7574000014
:105068000600525053B4F4A15450001052617370AA
:105078006265727279205069000000005069636FA0
:1050880000000000426F6172642043444300000046
:105098005265736574000000000000007450001031
:1050A80084500010D41100208C500010985000102B
:1050B80009025400030100807D080B00020202006F
:1050C8000009040000010202000405240020010573
:1050D80024010001042402020524060001070581B9
:1050E8000308001009040100020A00000007050275
:1050F8000240000007058202400000090402000087
:10510800FF00010512010002EF0201408A2E0A0089
:105118000001010203010000556E68616E646C6550
:10512800642049525120307825780A00657020257E
:10513800642025732077617320616C7265616479DE
:1051480020617661696C61626C65000043616E275D
:105158007420636F6E74696E756520786665722059
:105168006F6E20696E6163746976652065702025AD
:1051780064202573000000006F757400696E0000DC
:105188003A3300101E350010C03400107E34001071
:105198006034001048340010DC3300108A330010EB
:1051A8007E330010FE370010E4370010363400104C
:1051B8007A38001036340010623800104E3800106B
:1051C800363400103A380010123800103634001007
:1051D800963B0010943800108A3B001036340010BB
:1051E800363400106C3B0010943800103634001030
:1051F80036340010363400103634001036340010BF
:1052080036340010363400105C3B00107143001037
:10521800ED43001019440010FD440010E145001052
:045228000000000082
:10522C001450001020500010900200102C50001050
:10523C009C020010A8020010B4020010685000106C
:10524C00D02330B500251B0600245D5706E003680B
:10525C00BFF35F8F1C6081F3108820BF0268EFF3EF
:10526C00108172B61368002BFCD0BFF35F8F0379EB
:10527C007F2BECD905710368BFF35F8F00221A6096
:10528C0081F3108830BDC04603000068EFF3108C2A
:10529C0072B60268002AFCD0BFF35F8F04229A56C4
:1052AC00002A04DB002900D00A60002004E0D02290
:1052BC000120120612681A711B68BFF35F8F00225F
:1052CC001A608CF310887047F0B5C64600B582B0F2
:1052DC000C00070000F0F8F8FA220023009001916E
:1052EC0020009200002100F0F7F8009A019B1400B6
:1052FC001D0024184D41AB422FD82BD0D0231B06B8
:10530C001B68002698460BE03B68BFF35F8F1E605E
:10531C0081F310882000290000F0E6F8002820D145
:10532C003A68EFF3108172B61368002BFCD0BFF310
:10533C005F8F3B797F2BE7D943463B713B68BFF3CB
:10534C005F8F00221A6081F31088012002B080BCAC
:10535C00B846F0BD009BA342D0D901246442E517A6
:10536C00CCE70020F2E7C0460268EFF3108172B67A
:10537C001368002BFCD0BFF35F8FFF23037103680E
:10538C00BFF35F8F00221A6081F3108840BF704713
:10539C0010B5084C2378002B0AD180230648074906
:1053AC005B051A68C25004338B42FAD10123237077
:1053BC0010BDC046EC110020040C001000010010C0
:1053CC0010B5014B984710BD050C0020034B1A6813
:1053DC00C0239B009343024A136070470C8001402A
:1053EC000C900140054B1A6880239B005340C0224F
:1053FC0092001340024A13607047C0460C80014073
:10540C000C9001401423F0B5D6464F4646469A46BA
:10541C00814618880433C0B598460E001B8826496F
:10542C0014009847534607001888434623491B88A5
:10543C009847534605001888434621491B889847CE
:10544C008046FFF7A5FFB847A847FFF7CBFF221E02
:10545C0020D0C02108270220490511E0002C14D0CF
:10546C00131B0D2B20D9002D0AD02300002A05D0A8
:10547C000B6E013A3370130001362343002B09D015
:10548C003D008B6A1D401842E8D1002DEDD1230060
:10549C001343F5D1FFF79AFFC047FFF791FFE0BC2C
:1054AC00BA46B146A846F0BD4B461B78013C0B668C
:1054BC0001239C46E144E8E74946000045580000BA
:1054CC00464300007047C04601B40248844601BC04
:1054DC00604700BFF114001001B40248844601BCBF
:1054EC00604700BF2D22001001B40248844601BC65
:1054FC00604700BF511300101000000000000000B6
:10550C00000001000000000000000000000002008C
:10551C00000000000000000000000300000000007C
:10552C00000000000000FF000000000000B548680B
:10553C0001318E460047704609380149884700BD45
:10554C00ED0B0010DC03002000000000980400208C
:10555C00080D00200000000000000000180D0020C5
:10556C00000000000000000010000000000000001F
:10557C00503300004C330000543300005233000011
:10558C004D5300004D4300005334000043340000E1
:10559C00DD26001000000000752600100000000041
:1055AC00000100008051001084510010340B0020C9
:1055BC0010000C000000E0FF1F00000000000000C5
:1055CC0000000000000000000000000000000000CF
:1055DC000000000000000000F1220010A9200010C3
:1055EC006921001061220010ED020010414C0010E6
:04000005100001E9FD
:00000001FF
